:020000040800F2
:1000000080070020DD010008C90600083906000845
:10001000C5060008150500085F1100080000000073
:10002000000000000000000000000000250C000897
:10003000190500080000000051070008390D0008EC
:10004000F7010008F7010008F7010008F7010008B0
:10005000F7010008F7010008F7010008F7010008A0
:10006000F7010008F7010008F7010008F701000890
:10007000F7010008F7010008F7010008F701000880
:10008000F7010008F7010008F7010008F701000870
:10009000F7010008F7010008F7010008F701000860
:1000A000F7010008F7010008F7010008F701000850
:1000B000F70100089D0D0008F7010008F70100088E
:1000C000F7010008F7010008F7010008F701000830
:1000D000F70100083D0F0008F7010008F7010008CC
:1000E000F7010008F7010008F7010008F701000810
:1000F000F7010008F7010008F7010008F701000800
:10010000F7010008F7010008F7010008F7010008EF
:10011000F7010008F7010008F7010008F7010008DF
:10012000F7010008F7010008F7010008F7010008CF
:1001300000F002F800F042F80AA090E8000C8244B7
:100140008344AAF10107DA4501D100F037F8AFF294
:10015000090EBAE80F0013F0010F18BFFB1A43F0A5
:10016000010318473421000054210000103A24BF35
:1001700078C878C1FAD8520724BF30C830C144BF0C
:1001800004680C607047000000230024002500264E
:10019000103A28BF78C1FBD8520728BF30C148BFEA
:1001A0000B607047752900F0A580632900F0458138
:1001B000002070471FB51FBD10B510BD00F078F9C5
:1001C0001146FFF7F7FF01F059FC00F096F903B470
:1001D000FFF7F2FF03BC00F0C4FF000009488047AE
:1001E00009480047FEE7FEE7FEE7FEE7FEE7FEE719
:1001F000FEE7FEE7FEE7FEE704480549054A064B31
:10020000704700003D0D000831010008800100200A
:10021000800700208003002080030020704700003A
:100220000FB4044910B503AA029800F013F910BCEA
:100230005DF814FB3C0000202DE9F0410E46044619
:10024000002020622046E168884730B3252805D089
:10025000D4E901219047206A401CF2E7E16820467A
:1002600000278847050018D0A5F14100192802D8B9
:1002700020354FF400673246294620462760FFF7B5
:1002800091FF40B1012804D0F61D26F0070608367C
:10029000D8E7361DD6E72846DAE7206ABDE8F081C0
:1002A00070B50C460546012A05D02878800600D591
:1002B000EA69002302E0012305E05B1C934202D2BD
:1002C000E05C0028F9D1A869E618C01AA861286A7C
:1002D000184428622846AFF3008004E0D5E90121E4
:1002E00014F8010B9047B442F8D32846AFF30080CE
:1002F00070BD00002DE9F041064600241068752904
:10030000314616A510D0AFF30080002802DA404233
:1003100013A507E031688A0701D512A502E0490755
:1003200004D511A5012401E0AFF3008000210A22C9
:1003300006F1240709E0B0FBF2FCB0FBF2F302FB8C
:100340001C00303078541846491C0028F3D123464D
:100350002A463046BDE8F04100F00CB8000000002D
:100360002D0000002B0000002000000070477047A7
:10037000704770472DE9F0470D469946924604466E
:1003800000F124080168880604D5E06921F0100115
:10039000216000E00120A84201DD471B00E00027AA
:1003A000A1697A1902EB0900081AA0612078C00639
:1003B00002D42046AFF30080002608E0D4E90121F2
:1003C0001AF806009047206A401C761C20624E45B1
:1003D000F4DB2078C0060AD52046AFF3008006E0A3
:1003E000D4E9012130209047206A401C2062381E49
:1003F000A7F10107F4DC07E0D4E9012118F80500B2
:100400009047206A401C2062281EA5F10105F3DCFC
:100410002046AFF300802078000602D50220BDE818
:10042000F0870120FBE710B5436913B1AFF30080FB
:1004300001E0FFF735FF012010BD127800F1240123
:100440000A7000224A700122EDE711684FF0FF3276
:10045000E9E70000074B70B50D467B4400F011F84A
:100460000446284600F020F810B14FF0FF3070BD70
:10047000204670BD9715000001694A1C026108788A
:10048000704700B58FB0CDE90131002105910549D4
:100490007944CDE9031011466846FFF7CDFE0FB051
:1004A00000BD0000E5FFFFFF007B00F0800070470B
:1004B000754600F02BF8AE4605006946534620F01D
:1004C0000700854618B020B5FFF796FEBDE820402E
:1004D0004FF000064FF000074FF000084FF0000B00
:1004E00021F00701AC46ACE8C009ACE8C009ACE8B3
:1004F000C009ACE8C0098D46704710B50446AFF39B
:1005000000802046BDE81040FFF761BE00487047FC
:100510002001002000BFFEE770472DE9F0410246B0
:1005200000250026002000230024002791F803C0A6
:100530000CF00F0591F803C00CF0100CBCF1000F8B
:1005400003D091F802C04CEA050591F800C0BCF157
:10055000000F31D0146800202BE04FF0010C0CFA92
:1005600000F3B1F800C00CEA03069E4220D18300DC
:100570004FF00F0C0CFA03F7BC4305FA03FC4CEAEE
:10058000040491F803C0BCF1280F06D14FF0010C10
:100590000CFA00FCC2F814C00AE091F803C0BCF1E8
:1005A000480F05D14FF0010C0CFA00FCC2F810C046
:1005B000401C0828D1D31460B1F800C0BCF1FF0F73
:1005C00034DD546800202EE000F1080C4FF00108E3
:1005D00008FA0CF3B1F800C00CEA03069E4221D1E0
:1005E00083004FF00F0C0CFA03F7BC4305FA03FC31
:1005F0004CEA040491F803C0BCF1280F05D100F1C6
:10060000080C08FA0CF8C2F8148091F803C0BCF189
:10061000480F07D100F1080C4FF0010808FA0CF858
:10062000C2F81080401C0828CED35460BDE8F08189
:10063000416170470161704700BFFEE708B50121C5
:10064000442000F097F81020ADF8000028208DF825
:10065000030069460648FFF760FF0120ADF800007F
:1006600028208DF8030069460248FFF756FF08BDB1
:10067000001801400008014008B50121482000F0A1
:1006800079F82020ADF8000010208DF80300032039
:100690008DF8020069460948FFF73FFF202107480F
:1006A000FFF7C8FF2020ADF8000069460448FFF7B7
:1006B00034FF20210248FFF7BDFF08BD000C0140B8
:1006C0000018014000BFFEE77047000070B5002130
:1006D00000230F22C47804B3154C246804F4E064AA
:1006E000C4F5E064210AC1F10403CA40447804FA65
:1006F00003F184781440214309010E4C0678A1557A
:10070000047804F01F050124AC4005786D11AD009C
:1007100005F1E025C5F8004109E0047804F01F0563
:100720000124AC40044D0678761145F8264070BD92
:100730000CED00E000E400E080E100E0024901434C
:10074000024A1160704700000000FA050CED00E05D
:100750007047000029B1064AD2690243044BDA61AE
:1007600004E0034AD2698243014BDA61704700001A
:100770000010024029B1064A92690243044B9A6173
:1007800004E0034A92698243014B9A61704700007A
:100790000010024030B500210022002400232D4D1E
:1007A0006D6805F00C0121B1042905D0082923D179
:1007B00005E0294D056022E0274D05601FE0254D2D
:1007C0006D6805F47012234D6D6805F480340225C0
:1007D00005EB92421CB9214D554305600BE01D4DC0
:1007E0006D6805F400351DB11C4D5543056002E0F0
:1007F000194D5543056002E0174D056000BF00BF6D
:10080000144D6D6805F0F0010909154D6B5C056824
:10081000DD4045600F4D6D6805F4E061090A104D3B
:100820006B5C4568DD4085600A4D6D6805F460517C
:10083000C90A0B4D6B5C4568DD40C560054D6D68B0
:1008400005F44041890B074D6B5CC568B5FBF3F5BA
:10085000056130BD0010024000127A0000093D0021
:10086000240000203400002008B501211020FFF7EB
:1008700081FF4FF48070ADF8000010208DF8030068
:1008800003208DF802006946DF48FFF746FE4FF46B
:100890008071DD48FFF7CCFE4FF48070ADF80000AA
:1008A00010208DF8030003208DF802006946D74818
:1008B000FFF733FE4FF48071D448FFF7B9FE4FF4D1
:1008C0000070ADF8000010208DF8030003208DF8B3
:1008D00002006946CD48FFF720FE4FF40071CB4877
:1008E000FFF7A6FE0120ADF8000010208DF80300F0
:1008F00003208DF802006946C548FFF70EFE01216E
:10090000C348FFF795FE0220ADF8000010208DF8D7
:10091000030003208DF802006946BD48FFF7FDFD86
:100920000221BB48FFF784FE0420ADF80000102030
:100930008DF8030003208DF802006946B448FFF7E4
:10094000ECFD0421B248FFF773FE0820ADF800006B
:1009500010208DF8030003208DF802006946AC4892
:10096000FFF7DBFD0821AA48FFF762FE1020ADF873
:1009700000008DF8030003208DF802006946A448AA
:10098000FFF7CBFD1021A248FFF752FE2020ADF863
:10099000000010208DF8030003208DF80200694646
:1009A0009B48FFF7BAFD20219948FFF741FE402000
:1009B000ADF8000010208DF8030003208DF8020030
:1009C00069469348FFF7A9FD40219148FFF730FEA3
:1009D0008020ADF8000010208DF8030003208DF872
:1009E000020069468A48FFF798FD80218848FFF792
:1009F0001FFE0820ADF8000010208DF80300032032
:100A00008DF8020069468348FFF787FD0821814879
:100A1000FFF70EFE4020ADF8000010208DF8030017
:100A200003208DF8020069467A48FFF776FD4021E1
:100A30007848FFF7FDFD8020ADF8000010208DF80C
:100A4000030003208DF8020069467248FFF765FD38
:100A500080217048FFF7ECFD0420ADF80000102065
:100A60008DF8030003208DF8020069466A48FFF7FD
:100A700054FD04216848FFF7DBFD0820ADF80000B5
:100A800010208DF8030003208DF8020069466248AB
:100A9000FFF743FD08216048FFF7CAFD4020ADF88D
:100AA000000010208DF8030003208DF80200694635
:100AB0005948FFF732FD40215748FFF7B9FD402064
:100AC000ADF8000010208DF8030003208DF802001F
:100AD00069465248FFF721FD40215048FFF7A8FD25
:100AE0008020ADF8000010208DF8030003208DF861
:100AF000020069464948FFF710FD80214748FFF78B
:100B000097FD4FF48070ADF8000010208DF80300C1
:100B100003208DF8020069464048FFF7FEFC4FF4C1
:100B200080713E48FFF784FD4020ADF800001020A2
:100B30008DF8030003208DF8020069463848FFF75E
:100B4000ECFC40213648FFF773FD8020ADF8000033
:100B500010208DF8030003208DF80200694630480C
:100B6000FFF7DBFC80212E48FFF762FD4FF4807019
:100B7000ADF8000010208DF8030003208DF802006E
:100B800069462748FFF7C9FC4FF480712448FFF7F6
:100B90004FFD4FF40050ADF8000010208DF8030019
:100BA00003208DF8020069461D48FFF7B6FC4FF49C
:100BB00000511B48FFF73CFD4FF48040ADF80000AA
:100BC00010208DF8030003208DF8020069461448B8
:100BD000FFF7A3FC4FF480411148FFF729FD4FF4C4
:100BE0000040ADF8000010208DF8030003208DF8C0
:100BF000020069460A48FFF790FC4FF4004108489C
:100C0000FFF716FD08BD000000080140000C014080
:100C1000001001400014014000180140001C014078
:100C200000200140704710B500F002F810BD000030
:100C30000CB50020019000903348006840F48030EB
:100C40003149086000BF3048006800F4003000906F
:100C50000198401C0190009818B90198B0F5A06F58
:100C6000F1D12948006800F4003010B10120009053
:100C700001E0002000900098012843D1234800683B
:100C800040F01000214908600846006820F0030089
:100C900008600846006840F0020008601A48406892
:100CA000194948600846406848600846406840F472
:100CB000806048600846406820F47C104860084620
:100CC000406840F4E81048600846006840F08070D2
:100CD000086000BF0C48006800F000700028F9D0E0
:100CE0000948406820F0030007494860084640680A
:100CF00040F00200486000BF0348406800F00C006C
:100D00000828F9D10CBD000000100240002002406C
:100D1000042808D14FF0E021096941F004014FF0A7
:100D2000E022116107E04FF0E021096921F00401A0
:100D30004FF0E022116170477047000010B5134872
:100D4000006840F0010011490860084640681049F9
:100D500008400E494860084600680E4908400B49A3
:100D600008600846006820F4802008600846406853
:100D700020F4FE0048604FF41F008860FFF753FF27
:100D80004FF000600449086010BD000000100240F0
:100D90000000FFF8FFFFF6FE08ED00E010B50121AE
:100DA000064800F05EF840B10121044800F04AF81E
:100DB00003480068401C0249086010BD0004004060
:100DC000440000207FB505460C4601210220FFF7B4
:100DD000C1FCADF80850ADF804400020ADF80A00A1
:100DE000ADF8060001A9104800F056F8012211469E
:100DF0000D4800F047F81D208DF8000000208DF808
:100E0000010003208DF8020001208DF803006846E0
:100E1000FFF75CFC0121044800F017F800200349AB
:100E20000860084604B070BD000400404400002083
:100E300010B500220121024800F024F810BD000086
:100E400000040040CA430282704721B1028842F088
:100E50000102028004E002884FF6FE731A4002800D
:100E6000704730B50246002000230024158A05EAA9
:100E70000103958905EA010413B10CB1012000E0DA
:100E8000002030BD1AB183890B43838102E083893E
:100E90008B43838170470000002202881D4B9842DB
:100EA0000ED01D4B98420BD0B0F1804F08D01B4B99
:100EB000984205D01A4B984202D01A4B984204D15E
:100EC0004FF68F731A404B881A43174B984207D03E
:100ED000164B984204D04FF6FF431A40CB881A4372
:100EE00002808B8883850B8803850A4B98420BD040
:100EF000094B984208D00E4B984205D00D4B9842B2
:100F000002D00D4B984201D10B7A038601238382D4
:100F100070470000002C01400034014000040040F4
:100F200000080040000C0040001000400014004089
:100F300000400140004401400048014010B540F22B
:100F400025511D4800F04AF810B31B4800F002F983
:100F5000C4B21A48008800F40040C8B91748008895
:100F600000F4804060B10A2C03D0002013490880AF
:100F700020E01248008840F400401049088019E041
:100F80000D2C06D10D48008840F480400B490880A4
:100F900010E00A480088C0F30D0009490C540748C6
:100FA0000088401C0549088008460088C72801DDE4
:100FB0000020088010BD00000038014040000020E3
:100FC0005700002021B1828942F40052828104E05E
:100FD00082894DF6FF731A408281704770B50246D0
:100FE000002400230025002040F66A16B14200D1FB
:100FF00000BFC1F3421501F01F03012606FA03F3F7
:10100000012D02D19689334006E0022D02D1168AC5
:10101000334001E0968A33400C12012606FA04F4AC
:101020001688344013B10CB1012000E0002070BDDF
:10103000F0B50346002400260025002040F66A177C
:10104000B94200D100BF1846C1F3421401F01F0697
:10105000012707FA06F5012C01D10C3004E0022C1F
:1010600001D1103000E014301AB107682F43076037
:1010700002E00768AF430760F0BD00002DE9F047CC
:1010800086B005460E460024A24600BFA1460027B2
:10109000B08900B100BF2F462C8A4CF6FF70044087
:1010A000F08804432C82AC894EF6F3100440B088DB
:1010B00031890843718908430443AC81AC8A4FF6F7
:1010C000FF400440B0890443AC8201A8FFF762FBF3
:1010D0001F48874202D1DDF810A001E0DDF80CA026
:1010E000A88900F4004040B10AEBCA0000EB0A10E6
:1010F00031684900B0FBF1F807E00AEBCA0000EBE9
:101100000A1031688900B0FBF1F86420B8FBF0F0F8
:1011100004012009642101FB1089A88900F4004022
:1011200040B1322000EBC900B0FBF1F000F0070045
:10113000044308E0322000EB09106421B0FBF1F019
:1011400000F00F0004432C8106B0BDE8F0870000DA
:101150000038014001468888C0F30800704700BF8E
:10116000FEE7014600BF70478748006800682828EE
:101170007ED006DC0A280BD0142830D01E282DD1B2
:1011800056E0322875D03C2874D03D28F7D1F1E0E4
:1011900001207E49086000207D49C1F894010120AA
:1011A0007C490860091D08600020091D0860091DB0
:1011B0000860091D0860091D0860091D0860091DF7
:1011C00008600120744908600020091D0860724908
:1011D0001031086001207149C1F8A001D2E001205E
:1011E0006A49086000206A49C1F8940169490860A9
:1011F000091D08600120091D08600020091D086004
:101200000120091D08600020091D0860091D0860F3
:10121000091D08600120604908600020091D086060
:101220005D491031086001205C49C1F8A001A9E0C6
:1012300001205649086000205549C1F894015549DC
:101240000860091D0860091D08600120091D08606B
:10125000091D0860091D08600020091D0860091D9E
:10126000086001204C490860091D0860002002E068
:1012700009E02FE057E04849103108600120474954
:10128000C1F8A0017EE001204049086000204049EB
:10129000C1F894013F490860091D0860091D0860F4
:1012A000091D08600120091D0860091D0860002053
:1012B000091D0860091D08600120374908600020E9
:1012C000091D086034491031086001203349C1F814
:1012D000A00157E001202D49086000202C49C1F8E9
:1012E000940101202B4908600020091D0860091D98
:1012F0000860091D0860091D0860091D08600120BB
:10130000091D08600020091D0860012022490860AD
:101310000020091D086020491031086001201F4984
:10132000C1F8A0012EE001201849086000201849EA
:10133000C1F89401012017490860091D08600020C8
:10134000091D0860091D0860091D0860091D086065
:10135000091D08600120091D08600F490860002070
:10136000091D086001200C49103108600B49C1F8C3
:10137000A00107E000200449096808600B20084923
:10138000087000BF00BF7047000000209481214218
:101390000000234280012242880123420080214232
:1013A00008000020FA480068006850287ED010DC51
:1013B00028287CD006DC0A281CD014283DD01E2802
:1013C0003AD15DE0322873D03C2872D04628F7D15C
:1013D000F6E078286ED006DC5A286CD064286BD0F2
:1013E0006E28EDD186E1822867D08C2866D08D28C2
:1013F000E6D127E20020E74908600120E649C1F86C
:101400009401E64908600020091D0860091D086074
:10141000091D0860091D0860091D0860091D086094
:10142000091D0860DE490860091D0860DC491031AB
:101430000860DC49C1F8A0010CE20020D549086031
:101440000120D549C1F89401D4490860091D0860FC
:101450000020091D0860091D0860091D0860091D9C
:101460000860091D0860091D0860CD490860091D54
:101470000860CB4910310860CA49C1F8A001E9E110
:101480000020C44908600120C349C1F89401C34940
:101490000860091D08600020091D0860091D08601A
:1014A000091D0860091D0860091D08E0ADE014E091
:1014B0003AE060E045E1CFE0F3E075E19BE10860F0
:1014C000091D0860B6490860091D0860B44910315B
:1014D0000860B449C1F8A001BCE10020AD49086032
:1014E0000120AD49C1F894010020AC490860091DF4
:1014F00008600120091D08600020091D0860012006
:10150000091D08600020091D0860091D0860091DEB
:101510000860A3490860091D0860A14910310860EE
:10152000A049C1F8A00195E100209A490860012076
:101530009949C1F89401002098490860091D086084
:10154000091D08600120091D0860091D0860091DAA
:1015500008600020091D0860091D086090490860A6
:101560000120091D086000208D49103108608D4957
:10157000C1F8A0016EE1002086490860012086497B
:10158000C1F89401002085490860091D0860091D03
:101590000860091D08600120091D0860091D086018
:1015A0000020091D0860091D08607D490860091DAB
:1015B00008607B49103108607A49C1F8A00149E10F
:1015C00000207449086001207349C1F894017349EF
:1015D00008600020091D0860091D0860091D0860D9
:1015E000091D0860091D08600120091D0860002010
:1015F000091D08606A490860091D086068491031C2
:1016000008606849C1F8A00124E100206149086030
:1016100001206149C1F8940160490860091D086012
:101620000020091D0860091D0860091D0860091DCA
:101630000860091D08600120091D08600020584944
:101640000860091D0860012055491031086000201C
:101650005449C1F8A001FDE000204E490860012076
:101660004D49C1F894014D490860091D08600020EA
:10167000091D0860091D0860091D0860091D086032
:10168000091D0860091D0860012045490860002007
:10169000091D08604249103108604249C1F8A001A3
:1016A000D8E000203B49086001203B49C1F8940183
:1016B00000203A490860091D08600120091D0860E2
:1016C0000020091D08600120091D08600020091D77
:1016D0000860091D0860091D086001203049086084
:1016E0000020091D08602E49103108602D49C1F8FD
:1016F000A001AFE000202749086001202649C1F879
:101700009401002025490860091D0860091D086032
:101710000120091D0860091D0860091D08600020DE
:10172000091D0860091D086001201D490860091D88
:10173000086000201A49103108601A49C1F8A00158
:1017400088E000201349086001201349C1F8940182
:10175000002012490860091D0860091D0860091D64
:1017600008600120091D0860091D08600020091D8E
:101770000860091D08600120094908600020091D52
:1017800008600749103108600649C1F8A00161E00E
:101790000000002094812142000023428001224267
:1017A000880123420080214200202B49086001204B
:1017B0002A49C1F894012A4908600020091D0860DF
:1017C000091D0860091D0860091D0860091D0860E1
:1017D0000120091D08600020091D08600120214921
:1017E00008600020091D08601E49103108601E496C
:1017F000C1F8A0012EE00020174908600120174918
:10180000C1F8940116490860091D08600020091DEF
:101810000860091D0860091D0860091D0860091D90
:1018200008600120091D08600E4908600020091D9C
:10183000086001200B491031086000200A49C1F8F6
:10184000A00107E000200949096808600B20084949
:10185000087000BF00BF70479481214200002342FE
:1018600080012242880123420080214200000020A2
:101870000800002010B50B4800780A2804D00B2877
:1018800006D00C280CD107E007A0FEF7C9FC07E042
:101890000BA0FEF7C5FC03E00FA0FEF7C1FC00BFE4
:1018A00000BF10BD080000202A20434F4E54524F65
:1018B0004C204155544F5F5354415254202A00004C
:1018C0002A20434F4E54524F4C204155544F5F52A3
:1018D0004550454154202A002A20434F4E54524F30
:1018E0004C204D414E55414C202A00001A4800889A
:1018F00000F4004000B319480078532828D1174855
:101900004078452824D115488078542820D11348A0
:101910000079532806D10A201149087000200E4989
:10192000088018E00D480079522806D10B200C4998
:1019300008700020084908800DE0084800794D280B
:1019400009D10C200649087000200349088002E0F4
:101950000C20034908707047400000205700002009
:101960000800002010B56FF00400FFF7D1F90A4815
:1019700000680A49B0FBF1F0094908700846007890
:1019800000EB4001C1EBC0104FF6FF7101EAC0004F
:101990000449088010BD00001000002000127A00E9
:1019A000380000203A0000200146114A12884A43BC
:1019B0004FF0E0235A6100229A611A46126942F000
:1019C00001021A6100BF4FF0E022106900F001022D
:1019D0001AB100F48032002AF5D04FF0E0221269EB
:1019E00022F001024FF0E0231A6100229A61704751
:1019F0003A00002000BF054A128802F04002002A87
:101A0000F9D0C2B2014B1B1D1A807047003801404B
:101A100010B5FFF7A7FF4FF4A060FEF78FFE4FF45D
:101A2000E13000F0E9FBFEF727FEFEF71DFFFEF7B1
:101A300005FE0C200B49087000200B49087041F688
:101A40001F4140F2E730FFF7BDF908490860002068
:101A5000074908600120074908600749C1F8940157
:101A600010BD000008000020090000200000002038
:101A70000C000020948121420000234200203C49B8
:101A800008700C203B49087000203B490860012089
:101A90003A4908603A49C1F89401FFF7B9FF66E096
:101AA00000F042FB3248007801283CD1FFF71EFFCE
:101AB000304800780A2804D00B280ED00C2821D1F9
:101AC00017E03048006800688D2803D900202D49B0
:101AD00009680860FFF766FC14E02A48006800689F
:101AE0003D2803D90020274909680860FFF73CFB1F
:101AF00008E00020214908602149C1F8940100F064
:101B00004FF800BF00BF1F48006800680A21B0FB03
:101B1000F1F201FB120008B9FFF7ACFE00F0BAF9D0
:101B200000F05AFB23E012480078022810D164200C
:101B3000FFF73AFF114800681348D0F894011348A2
:101B400000681148D0F8940111A0FEF769FB0EE07F
:101B50000748007858B96420FFF726FF0EA0FEF76B
:101B60005FFB0120054908600549C1F8940197E72A
:101B700009000020080000200C0000209481214270
:101B800000002342000000200080214294012342F3
:101B900050415553450D0A004F46460D0A000000BE
:101BA00010B5B448008800F4004000287ED02A20F8
:101BB000B149087020204870B0480078502856D1AC
:101BC000AE48C078312852D1502088705320C87058
:101BD000412008713120487120208871A748407940
:101BE00049280BD1A648A74908604920A249C871D5
:101BF0004E20087220204872887234E09F48407955
:101C000050280DD19E48001D9E49086050209A49D9
:101C1000C871522008724F2048722020887222E03A
:101C20009648407942280DD195480830954908607A
:101C300042209149C871412008724C2048722020EE
:101C4000887210E08D48407943280CD18C480C30C4
:101C50008C49086043208849C8714C200872522082
:101C600048722020887220208349C872C9E08348C6
:101C7000007850285AD18148C078322856D1502057
:101C80007D4988705320C870412008713220487106
:101C9000202088717948407949280ED17848103041
:101CA0007849086049207449C87100E0E1E04E209D
:101CB000087220204872887234E0704840795028B9
:101CC0000DD16F4814306F49086050206A49C871BF
:101CD000522008724F2048722020887222E0674804
:101CE000407942280DD16648183066490860422084
:101CF0006149C871412008724C20487220208872C6
:101D000010E05E48407943280CD15D481C305D49A5
:101D1000086043205849C8714C200872522048720C
:101D20002020887220205449C8726AE05348007805
:101D3000502846D15148C078442842D150204E49BD
:101D400088705220C8704F200871442048712020AC
:101D500088714A4840794F280CD14B48494908605E
:101D60004F204549C87155200872542048722020E0
:101D7000887222E04148007A31280DD14248001D86
:101D80004049086050203C49C871532008724120E6
:101D900048723120887210E03848007A32280CD11D
:101DA000394810303749086050203349C8715320F2
:101DB0000872412048723220887220202E49C87251
:101DC0001FE02E48007843281BD12B4988704F20F4
:101DD000C8704C2008713220487120208871274833
:101DE000407949280AD129482649086049202249D2
:101DF000C8714E20087220204872887220201E4927
:101E0000C8721E48807A302802D0312810D107E0ED
:101E100000201C490968086030201749087307E052
:101E2000012018490968086031201349087300BF70
:101E300000BF2020104948732A208873002405E041
:101E40000D48015D12A0FEF7EBF9641C0F2CF7DBC7
:101E50000A480078532809D108484078452805D118
:101E600006488078542801D1FFF740FD0020014941
:101E7000088010BD400000204800002057000020CE
:101E8000800122420C00002088012342A0812142CF
:101E90002563000010B54148006818B140A0FEF766
:101EA000BFF902E042A0FEF7BBF93C48001D006804
:101EB00018B143A0FEF7B4F902E045A0FEF7B0F96F
:101EC00036480830006818B145A0FEF7A9F902E0CD
:101ED00047A0FEF7A5F931480C30006818B148A0BA
:101EE000FEF79EF902E04AA0FEF79AF92B4810305F
:101EF000006818B14AA0FEF793F902E04CA0FEF783
:101F00008FF926481430006818B14DA0FEF788F903
:101F100002E04FA0FEF784F920481830006818B19D
:101F20004FA0FEF77DF902E051A0FEF779F91B48BA
:101F30001C30006818B152A0FEF772F902E054A0FC
:101F4000FEF76EF95648006818B156A0FEF768F91A
:101F500002E058A0FEF764F95148001D006818B16E
:101F600058A0FEF75DF902E05AA0FEF759F94C4877
:101F70001030006818B15BA0FEF752F902E05DA0D6
:101F8000FEF74EF95F48006818B15FA0FEF748F908
:101F900002E061A0FEF744F910BD0000800122427A
:101FA0002A205053413120494E20202031202A0040
:101FB0002A205053413120494E20202030202A0031
:101FC0002A20505341312050524F202031202A00E6
:101FD0002A20505341312050524F202030202A00D7
:101FE0002A20505341312042414C202031202A00E8
:101FF0002A20505341312042414C202030202A00D9
:102000002A205053413120434C52202031202A00B5
:102010002A205053413120434C52202030202A00A6
:102020002A205053413220494E202020312A2000BE
:102030002A205053413220494E20202030202A00AF
:102040002A20505341322050524F202031202A0064
:102050002A20505341322050524F202030202A0055
:102060002A20505341322042414C202031202A0066
:102070002A20505341322042414C202030202A0057
:102080002A205053413220434C52202031202A0034
:102090002A205053413220434C52202030202A0025
:1020A000880123422A2050524F44204F555420206B
:1020B00031202A002A2050524F44204F55542020CE
:1020C00030202A002A2050524F44205053413120C2
:1020D00031202A002A2050524F44205053413120B1
:1020E00030202A002A2050524F44205053413220A1
:1020F00031202A002A2050524F4420505341322090
:1021000030202A00A08121422A20434F4C3220490E
:102110004E20202031202A002A20434F4C322049D3
:102120004E20202030202A0010B52748008800F4D7
:102130000040002846D025480078522816D1234870
:102140004078552812D1214880784E280ED10120A0
:102150001F49087041F61F4140F2E730FEF732FE9A
:102160001C4908600020184908802BE017480078B7
:10217000502810D11548407841280CD11348807858
:10218000552808D1022012490870FEF751FE0020A0
:102190000D49088016E00D4800784F2812D10B48F1
:1021A000407846280ED10948807846280AD1002078
:1021B00007490870FEF73CFE0020064909680860E0
:1021C0000149088010BD0000400000205700002099
:1021D000090000200000002010B5034800680168D5
:1021E00002A0FEF71DF810BD000000202A2054496F
:1021F0004D45202575202A0010B586B004460121E2
:1022000044F20400FEF7B6FA4FF40070ADF8140083
:1022100003208DF8160018208DF8170005A91C481A
:10222000FEF77BF94FF48060ADF8140004208DF8C0
:10223000170005A91648FEF770F925208DF8000053
:1022400003208DF801008DF8020001208DF80300B5
:102250006846FEF73BFA01940020ADF80800ADF89F
:102260000A00ADF80C00ADF810000C20ADF80E001F
:1022700001A90848FEF702FF012240F22551054856
:10228000FEF7D6FE01210348FEF79CFE06B010BD06
:102290000008014000380140B8220008000000207A
:1022A000480000006C0100080023000848000020DE
:1022B000380700008801000800000000000000004E
:1022C000000000000000000000A24A04000000001E
:1022D00000000000010203040607080900000000D6
:1022E00001020304010203040607080902040608A8
:1022F00000000000000000000000000000000000DE
:04000005080001DD11
:00000001FF
