:020000040800F2
:1000000080070020DD010008C5060008350600084D
:10001000C10600081505000847110008000000008F
:10002000000000000000000000000000210C00089B
:1000300019050008000000004D070008350D0008F4
:10004000F7010008F7010008F7010008F7010008B0
:10005000F7010008F7010008F7010008F7010008A0
:10006000F7010008F7010008F7010008F701000890
:10007000F7010008F7010008F7010008F701000880
:10008000F7010008F7010008F7010008F701000870
:10009000F7010008F7010008F7010008F701000860
:1000A000F7010008F7010008F7010008F701000850
:1000B000F7010008990D0008F7010008F701000892
:1000C000F7010008F7010008F7010008F701000830
:1000D000F7010008250F0008F7010008F7010008E4
:1000E000F7010008F7010008F7010008F701000810
:1000F000F7010008F7010008F7010008F701000800
:10010000F7010008F7010008F7010008F7010008EF
:10011000F7010008F7010008F7010008F7010008DF
:10012000F7010008F7010008F7010008F7010008CF
:1001300000F002F800F042F80AA090E8000C8244B7
:100140008344AAF10107DA4501D100F037F8AFF294
:10015000090EBAE80F0013F0010F18BFFB1A43F0A5
:1001600001031847801F0000A01F0000103A24BFA1
:1001700078C878C1FAD8520724BF30C830C144BF0C
:1001800004680C607047000000230024002500264E
:10019000103A28BF78C1FBD8520728BF30C148BFEA
:1001A0000B607047752900F0A580632900F0458138
:1001B000002070471FB51FBD10B510BD00F078F9C5
:1001C0001146FFF7F7FF01F021FC00F096F903B4A8
:1001D000FFF7F2FF03BC00F0B8FF000009488047BA
:1001E00009480047FEE7FEE7FEE7FEE7FEE7FEE719
:1001F000FEE7FEE7FEE7FEE704480549054A064B31
:1002000070470000390D000831010008800100200E
:10021000800700208003002080030020704700003A
:100220000FB4044910B503AA029800F013F910BCEA
:100230005DF814FB3C0000202DE9F0410E46044619
:10024000002020622046E168884730B3252805D089
:10025000D4E901219047206A401CF2E7E16820467A
:1002600000278847050018D0A5F14100192802D8B9
:1002700020354FF400673246294620462760FFF7B5
:1002800091FF40B1012804D0F61D26F0070608367C
:10029000D8E7361DD6E72846DAE7206ABDE8F081C0
:1002A00070B50C460546012A05D02878800600D591
:1002B000EA69002302E0012305E05B1C934202D2BD
:1002C000E05C0028F9D1A869E618C01AA861286A7C
:1002D000184428622846AFF3008004E0D5E90121E4
:1002E00014F8010B9047B442F8D32846AFF30080CE
:1002F00070BD00002DE9F041064600241068752904
:10030000314616A510D0AFF30080002802DA404233
:1003100013A507E031688A0701D512A502E0490755
:1003200004D511A5012401E0AFF3008000210A22C9
:1003300006F1240709E0B0FBF2FCB0FBF2F302FB8C
:100340001C00303078541846491C0028F3D123464D
:100350002A463046BDE8F04100F00CB8000000002D
:100360002D0000002B0000002000000070477047A7
:10037000704770472DE9F0470D469946924604466E
:1003800000F124080168880604D5E06921F0100115
:10039000216000E00120A84201DD471B00E00027AA
:1003A000A1697A1902EB0900081AA0612078C00639
:1003B00002D42046AFF30080002608E0D4E90121F2
:1003C0001AF806009047206A401C761C20624E45B1
:1003D000F4DB2078C0060AD52046AFF3008006E0A3
:1003E000D4E9012130209047206A401C2062381E49
:1003F000A7F10107F4DC07E0D4E9012118F80500B2
:100400009047206A401C2062281EA5F10105F3DCFC
:100410002046AFF300802078000602D50220BDE818
:10042000F0870120FBE710B5436913B1AFF30080FB
:1004300001E0FFF735FF012010BD127800F1240123
:100440000A7000224A700122EDE711684FF0FF3276
:10045000E9E70000074B70B50D467B4400F011F84A
:100460000446284600F020F810B14FF0FF3070BD70
:10047000204670BD3315000001694A1C02610878EE
:10048000704700B58FB0CDE90131002105910549D4
:100490007944CDE9031011466846FFF7CDFE0FB051
:1004A00000BD0000E5FFFFFF007B00F0800070470B
:1004B000754600F02BF8AE4605006946534620F01D
:1004C0000700854618B020B5FFF796FEBDE820402E
:1004D0004FF000064FF000074FF000084FF0000B00
:1004E00021F00701AC46ACE8C009ACE8C009ACE8B3
:1004F000C009ACE8C0098D46704710B50446AFF39B
:1005000000802046BDE81040FFF761BE00487047FC
:100510002001002000BFFEE770472DE9F0410246B0
:1005200000250026002000230024002791F803C0A6
:100530000CF00F0591F803C00CF0100CBCF1000F8B
:1005400003D091F802C04CEA050591F800C0BCF157
:10055000000F31D0146800202BE04FF0010C0CFA92
:1005600000F3B1F800C00CEA03069E4220D18300DC
:100570004FF00F0C0CFA03F7BC4305FA03FC4CEAEE
:10058000040491F803C0BCF1280F06D14FF0010C10
:100590000CFA00FCC2F814C00AE091F803C0BCF1E8
:1005A000480F05D14FF0010C0CFA00FCC2F810C046
:1005B000401C0828D1D31460B1F800C0BCF1FF0F73
:1005C00034DD546800202EE000F1080C4FF00108E3
:1005D00008FA0CF3B1F800C00CEA03069E4221D1E0
:1005E00083004FF00F0C0CFA03F7BC4305FA03FC31
:1005F0004CEA040491F803C0BCF1280F05D100F1C6
:10060000080C08FA0CF8C2F8148091F803C0BCF189
:10061000480F07D100F1080C4FF0010808FA0CF858
:10062000C2F81080401C0828CED35460BDE8F08189
:100630000161704700BFFEE708B50121442000F0CA
:1006400097F81020ADF8000028208DF803006946C7
:100650000648FFF762FF0120ADF8000028208DF862
:10066000030069460248FFF758FF08BD0018014023
:100670000008014008B50121482000F079F8202049
:10068000ADF8000010208DF8030003208DF8020063
:1006900069460948FFF741FF20210748FFF7C8FFD7
:1006A0002020ADF8000069460448FFF736FF2021FE
:1006B0000248FFF7BDFF08BD000C014000180140D3
:1006C00000BFFEE77047000070B5002100230F2235
:1006D000C47804B3154C246804F4E064C4F5E06401
:1006E000210AC1F10403CA40447804FA03F1847872
:1006F0001440214309010E4C0678A155047804F0FA
:100700001F050124AC4005786D11AD0005F1E02511
:10071000C5F8004109E0047804F01F050124AC404D
:10072000044D0678761145F8264070BD0CED00E0CA
:1007300000E400E080E100E002490143024A116068
:10074000704700000000FA050CED00E07047000063
:1007500029B1064AD2690243044BDA6104E0034A34
:10076000D2698243014BDA617047000000100240F9
:1007700029B1064A92690243044B9A6104E0034A94
:1007800092698243014B9A61704700000010024059
:1007900030B500210022002400232D4D6D6805F0A6
:1007A0000C0121B1042905D0082923D105E0294DE8
:1007B000056022E0274D05601FE0254D6D6805F4BA
:1007C0007012234D6D6805F48034022505EB9242CA
:1007D0001CB9214D554305600BE01D4D6D6805F4B6
:1007E00000351DB11C4D5543056002E0194D5543C0
:1007F000056002E0174D056000BF00BF144D6D6835
:1008000005F0F0010909154D6B5C0568DD40456098
:100810000F4D6D6805F4E061090A104D6B5C456889
:10082000DD4085600A4D6D6805F46051C90A0B4DC5
:100830006B5C4568DD40C560054D6D6805F4404161
:10084000890B074D6B5CC568B5FBF3F5056130BDE1
:100850000010024000127A0000093D002400002030
:100860003400002008B501211020FFF781FF4FF46C
:100870008070ADF8000010208DF8030003208DF883
:1008800002006946DF48FFF748FE4FF48071DD48FB
:10089000FFF7CEFE4FF48070ADF8000010208DF809
:1008A000030003208DF802006946D748FFF735FEA4
:1008B0004FF48071D448FFF7BBFE4FF40070ADF8E1
:1008C000000010208DF8030003208DF80200694617
:1008D000CD48FFF722FE4FF40071CB48FFF7A8FE8A
:1008E0000120ADF8000010208DF8030003208DF8E2
:1008F00002006946C548FFF710FE0121C348FFF713
:1009000097FE0220ADF8000010208DF803000320B0
:100910008DF802006946BD48FFF7FFFD0221BB4884
:10092000FFF786FE0420ADF8000010208DF80300CC
:1009300003208DF802006946B448FFF7EEFD04215C
:10094000B248FFF775FE0820ADF8000010208DF8C2
:10095000030003208DF802006946AC48FFF7DDFD77
:100960000821AA48FFF764FE1020ADF800008DF8BA
:10097000030003208DF802006946A448FFF7CDFD6F
:100980001021A248FFF754FE2020ADF800001020EF
:100990008DF8030003208DF8020069469B48FFF79D
:1009A000BCFD20219948FFF743FE4020ADF8000030
:1009B00010208DF8030003208DF80200694693484B
:1009C000FFF7ABFD40219148FFF732FE8020ADF8E4
:1009D000000010208DF8030003208DF80200694606
:1009E0008A48FFF79AFD80218848FFF721FE0820FA
:1009F000ADF8000010208DF8030003208DF80200F0
:100A000069468348FFF789FD08218148FFF710FEFA
:100A10004020ADF8000010208DF8030003208DF871
:100A2000020069467A48FFF778FD40217848FFF7D1
:100A3000FFFD8020ADF8000010208DF8030003209A
:100A40008DF8020069467248FFF767FD8021704803
:100A5000FFF7EEFD0420ADF8000010208DF8030034
:100A600003208DF8020069466A48FFF756FD04210D
:100A70006848FFF7DDFD0820ADF8000010208DF874
:100A8000030003208DF8020069466248FFF745FD28
:100A900008216048FFF7CCFD4020ADF80000102091
:100AA0008DF8030003208DF8020069465948FFF7CE
:100AB00034FD40215748FFF7BBFD4020ADF8000052
:100AC00010208DF8030003208DF80200694652487B
:100AD000FFF723FD40215048FFF7AAFD8020ADF825
:100AE000000010208DF8030003208DF802006946F5
:100AF0004948FFF712FD80214748FFF799FD4FF461
:100B00008070ADF8000010208DF8030003208DF8F0
:100B1000020069464048FFF700FD4FF480713E48EF
:100B2000FFF786FD4020ADF8000010208DF803008F
:100B300003208DF8020069463848FFF7EEFC40219B
:100B40003648FFF775FD8020ADF8000010208DF8C5
:100B5000030003208DF8020069463048FFF7DDFCF2
:100B600080212E48FFF764FD4FF48070ADF800003F
:100B700010208DF8030003208DF8020069462748F5
:100B8000FFF7CBFC4FF480712448FFF751FD4FF481
:100B90000050ADF8000010208DF8030003208DF800
:100BA000020069461D48FFF7B8FC4FF400511B488E
:100BB000FFF73EFD4FF48040ADF8000010208DF8A7
:100BC000030003208DF8020069461448FFF7A5FCD6
:100BD0004FF480411148FFF72BFD4FF40040ADF872
:100BE000000010208DF8030003208DF802006946F4
:100BF0000A48FFF792FC4FF400410848FFF718FD40
:100C000008BD000000080140000C01400010014038
:100C10000014014000180140001C01400020014068
:100C2000704710B500F002F810BD00000CB50020B0
:100C3000019000903348006840F4803031490860EA
:100C400000BF3048006800F4003000900198401C5C
:100C50000190009818B90198B0F5A06FF1D129481A
:100C6000006800F4003010B10120009001E0002085
:100C700000900098012843D12348006840F01000FC
:100C8000214908600846006820F003000860084613
:100C9000006840F0020008601A484068194948603E
:100CA0000846406848600846406840F480604860F4
:100CB0000846406820F47C1048600846406840F4CC
:100CC000E81048600846006840F08070086000BF87
:100CD0000C48006800F000700028F9D0094840680E
:100CE00020F00300074948600846406840F00200D1
:100CF000486000BF0348406800F00C000828F9D1A4
:100D00000CBD00000010024000200240042808D161
:100D10004FF0E021096941F004014FF0E022116138
:100D200007E04FF0E021096921F004014FF0E022D3
:100D3000116170477047000010B51348006840F01B
:100D400001001149086008464068104908400E49F2
:100D50004860084600680E4908400B49086008468C
:100D6000006820F4802008600846406820F4FE00F7
:100D700048604FF41F008860FFF753FF4FF000609A
:100D80000449086010BD0000001002400000FFF898
:100D9000FFFFF6FE08ED00E010B50121064800F067
:100DA00054F840B10121044800F040F803480068BD
:100DB000401C0249086010BD0004004044000020AF
:100DC0007FB505460C4601210220FFF7C1FCADF8B6
:100DD0000850ADF804400020ADF80A00ADF8060058
:100DE00001A9104800F04CF8012211460D4800F00E
:100DF0003DF81D208DF8000000208DF80100032033
:100E00008DF8020001208DF803006846FFF75CFCB6
:100E10000121044800F00DF800200349086008464D
:100E200004B070BD0004004044000020CA430282A8
:100E3000704721B1028842F00102028004E002887A
:100E40004FF6FE731A400280704730B5024600200C
:100E500000230024158A05EA0103958905EA0104A7
:100E600013B10CB1012000E0002030BD1AB183891C
:100E70000B43838102E083898B43838170470000A9
:100E8000002202881D4B98420ED01D4B98420BD079
:100E9000B0F1804F08D01B4B984205D01A4B9842B6
:100EA00002D01A4B984204D14FF68F731A404B88E8
:100EB0001A43174B984207D0164B984204D04FF66E
:100EC000FF431A40CB881A4302808B8883850B88A6
:100ED00003850A4B98420BD0094B984208D00E4B21
:100EE000984205D00D4B984202D00D4B984201D14B
:100EF0000B7A03860123838270470000002C014097
:100F0000003401400004004000080040000C004094
:100F10000010004000140040004001400044014027
:100F20000048014010B540F225511D4800F04AF834
:100F300010B31B4800F002F9C4B21A48008800F44C
:100F40000040C8B91748008800F4804060B10A2CFE
:100F500003D000201349088020E01248008840F4A4
:100F600000401049088019E00D2C06D10D4800887A
:100F700040F480400B49088010E00A480088C0F324
:100F80000D0009490C5407480088401C0549088099
:100F900008460088C72801DD0020088010BD000039
:100FA00000380140400000205700002021B1828914
:100FB00042F40052828104E082894DF6FF731A40A8
:100FC0008281704770B5024600240023002500206E
:100FD00040F66A16B14200D100BFC1F3421501F0DC
:100FE0001F03012606FA03F3012D02D1968933402F
:100FF00006E0022D02D1168A334001E0968A334082
:101000000C12012606FA04F41688344013B10CB110
:10101000012000E0002070BDF0B50346002400264A
:101020000025002040F66A17B94200D100BF1846DB
:10103000C1F3421401F01F06012707FA06F5012C3F
:1010400001D10C3004E0022C01D1103000E014304A
:101050001AB107682F43076002E00768AF430760D3
:10106000F0BD00002DE9F04786B005460E4600248D
:10107000A24600BFA1460027B08900B100BF2F469D
:101080002C8A4CF6FF700440F08804432C82AC8913
:101090004EF6F3100440B088318908437189084343
:1010A0000443AC81AC8A4FF6FF400440B08904434E
:1010B000AC8201A8FFF76CFB1F48874202D1DDF824
:1010C00010A001E0DDF80CA0A88900F4004040B1B8
:1010D0000AEBCA0000EB0A1031684900B0FBF1F8D6
:1010E00007E00AEBCA0000EB0A1031688900B0FB88
:1010F000F1F86420B8FBF0F004012009642101FB41
:101100001089A88900F4004040B1322000EBC900EA
:10111000B0FBF1F000F00700044308E0322000EBE0
:1011200009106421B0FBF1F000F00F0004432C81A2
:1011300006B0BDE8F087000000380140014688880D
:10114000C0F30800704700BFFEE7014600BF7047CC
:1011500087480068006828287ED006DC0A280BD063
:10116000142830D01E282DD156E0322875D03C28C6
:1011700074D03D28F7D1F1E001207E4908600020BD
:101180007D49C1F8940101207C490860091D08606F
:101190000020091D0860091D0860091D0860091D5F
:1011A0000860091D0860091D086001207449086075
:1011B0000020091D08607249103108600120714942
:1011C000C1F8A001D2E001206A49086000206A4904
:1011D000C1F8940169490860091D08600120091DD2
:1011E00008600020091D08600120091D086000201A
:1011F000091D0860091D0860091D0860012060497B
:1012000008600020091D08605D4910310860012058
:101210005C49C1F8A001A9E00120564908600020FE
:101220005549C1F8940155490860091D0860091D18
:1012300008600120091D0860091D0860091D08607B
:101240000020091D0860091D086001204C49086044
:10125000091D0860002002E009E02FE057E048493E
:101260001031086001204749C1F8A0017EE001204B
:101270004049086000204049C1F894013F49086096
:10128000091D0860091D0860091D08600120091D6D
:101290000860091D08600020091D0860091D08601C
:1012A0000120374908600020091D086034491031C9
:1012B000086001203349C1F8A00157E001202D4901
:1012C000086000202C49C1F8940101202B490860D6
:1012D0000020091D0860091D0860091D0860091D1E
:1012E0000860091D08600120091D08600020091D13
:1012F00008600120224908600020091D086020497B
:101300001031086001201F49C1F8A0012EE0012022
:101310001849086000201849C1F8940101201749B4
:101320000860091D08600020091D0860091D08608B
:10133000091D0860091D0860091D08600120091DBC
:1013400008600F4908600020091D086001200C4951
:10135000103108600B49C1F8A00107E000200449E2
:101360000968086001200849087000BF00BF704785
:10137000000000209481214200002342800122428B
:10138000880123420080214208000020FA480068BA
:10139000006850287ED010DC28287CD006DC0A2883
:1013A0001CD014283DD01E283AD15DE0322873D0DD
:1013B0003C2872D04628F7D1F6E078286ED006DCBB
:1013C0005A286CD064286BD06E28EDD186E1822833
:1013D00067D08C2866D08D28E6D127E20020E74927
:1013E00008600120E649C1F89401E6490860002040
:1013F000091D0860091D0860091D0860091D0860B5
:10140000091D0860091D0860091D0860DE490860A3
:10141000091D0860DC4910310860DC49C1F8A001F1
:101420000CE20020D54908600120D549C1F894019B
:10143000D4490860091D08600020091D0860091DC5
:101440000860091D0860091D0860091D0860091D64
:101450000860CD490860091D0860CB49103108605B
:10146000CA49C1F8A001E9E10020C449086001208F
:10147000C349C1F89401C3490860091D08600020F0
:10148000091D0860091D0860091D0860091D086024
:10149000091D08E0ADE014E03AE060E045E1CFE08E
:1014A000F3E075E19BE10860091D0860B64908603A
:1014B000091D0860B44910310860B449C1F8A001A1
:1014C000BCE10020AD4908600120AD49C1F894019C
:1014D0000020AC490860091D08600120091D086052
:1014E0000020091D08600120091D08600020091D59
:1014F0000860091D0860091D0860A3490860091DEE
:101500000860A14910310860A049C1F8A00195E127
:1015100000209A49086001209949C1F894010020EF
:1015200098490860091D0860091D08600120091D0F
:101530000860091D0860091D08600020091D086079
:10154000091D0860904908600120091D08600020FD
:101550008D49103108608D49C1F8A0016EE100206D
:101560008649086001208649C1F894010020854918
:101570000860091D0860091D0860091D0860012038
:10158000091D0860091D08600020091D0860091D6B
:1015900008607D490860091D08607B4910310860BA
:1015A0007A49C1F8A00149E100207449086001208E
:1015B0007349C1F89401734908600020091D08604F
:1015C000091D0860091D0860091D0860091D0860E3
:1015D0000120091D08600020091D08606A49086093
:1015E000091D08606849103108606849C1F8A00108
:1015F00024E100206149086001206149C1F894019B
:1016000060490860091D08600020091D0860091D67
:101610000860091D0860091D0860091D0860012097
:10162000091D0860002058490860091D0860012054
:1016300055491031086000205449C1F8A001FDE06F
:1016400000204E49086001204D49C1F894014D49E0
:101650000860091D08600020091D0860091D086058
:10166000091D0860091D0860091D0860091D086042
:101670000120454908600020091D086042491031D9
:1016800008604249C1F8A001D8E000203B49086049
:1016900001203B49C1F8940100203A490860091D26
:1016A00008600120091D08600020091D0860012054
:1016B000091D08600020091D0860091D0860091D3A
:1016C00008600120304908600020091D08602E498B
:1016D000103108602D49C1F8A001AFE00020274972
:1016E000086001202649C1F89401002025490860BE
:1016F000091D0860091D08600120091D0860091DF9
:101700000860091D08600020091D0860091D0860A7
:1017100001201D490860091D086000201A49103188
:1017200008601A49C1F8A00188E000201349086048
:1017300001201349C1F89401002012490860091DD5
:101740000860091D0860091D08600120091D086066
:10175000091D08600020091D0860091D086001209E
:10176000094908600020091D086007491031086018
:101770000649C1F8A00161E00000002094812142E7
:10178000000023428001224288012342008021423E
:1017900000202B49086001202A49C1F894012A49F8
:1017A00008600020091D0860091D0860091D086007
:1017B000091D0860091D08600120091D086000203E
:1017C000091D08600120214908600020091D0860EA
:1017D0001E49103108601E49C1F8A0012EE000200A
:1017E0001749086001201749C1F89401164908609B
:1017F000091D08600020091D0860091D0860091DF9
:101800000860091D0860091D08600120091D0860A5
:101810000E4908600020091D086001200B491031A5
:10182000086000200A49C1F8A00107E0002009492A
:101830000968086001200849087000BF00BF7047B0
:1018400094812142000023428001224288012342E8
:1018500000802142000000200800002010B50B4845
:10186000007820B1012806D002280CD107E008A09A
:10187000FEF7D6FC07E00CA0FEF7D2FC03E010A0B8
:10188000FEF7CEFC00BF00BF10BD00000800002026
:101890002A20434F4E54524F4C204155544F5F53D2
:1018A00054415254202A00002A20434F4E54524F94
:1018B0004C204155544F5F524550454154202A0019
:1018C0002A20434F4E54524F4C204D414E55414CCF
:1018D000202A00001A48008800F40040F8B1194896
:1018E0000078532827D117484078452823D1154838
:1018F000807854281FD113480079532805D100203F
:10190000114908700E49088018E00E4800795228E5
:1019100006D101200C4908700020094908800DE01B
:10192000084800794D2809D1022007490870002095
:101930000349088002E00220034908707047000054
:1019400040000020570000200800002010B56FF074
:101950000400FFF7DBF90A4800680A49B0FBF1F020
:10196000094908700846007800EB4001C1EBC0103F
:101970004FF6FF7101EAC0000449088010BD000065
:101980001000002000127A00380000203A000020E9
:1019900000BF054A128802F04002002AF9D0C2B204
:1019A000014B1B1D1A8070470038014010B5FFF72E
:1019B000CDFF4FF4A060FEF7BFFE4FF4E13000F022
:1019C00041FBFEF757FEFEF74DFFFEF735FE002008
:1019D0000949087041F61F4140F2E730FFF7F0F97E
:1019E0000649086000200649086001200549086092
:1019F0000549C1F8940110BD080000200000002036
:101A00000C0000209481214200002342FFF7CEFF0A
:101A10003AE0FFF75FFF1D48007820B101280ED0A3
:101A2000022821D117E01A48006800688D2803D9E0
:101A30000020174909680860FFF7A8FC14E0144863
:101A4000006800683D2803D9002011490968086032
:101A5000FFF77EFB08E000200E4908600E49C1F840
:101A6000940100F01BF800BF00BF0948006800683F
:101A70000A21B0FBF1F201FB120008B9FFF7EEFEFC
:101A800000F086F900F0CEFAC3E70000080000205D
:101A900000000020948121420000234210B5B44888
:101AA000008800F4004000287ED02A20B149087048
:101AB00020204870B0480078502856D1AE48C078F1
:101AC000312852D1502088705320C87041200871AD
:101AD0003120487120208871A748407949280BD1CE
:101AE000A648A74908604920A249C8714E2008723B
:101AF00020204872887234E09F48407950280DD1E8
:101B00009E48001D9E49086050209A49C871522085
:101B100008724F2048722020887222E0964840794F
:101B200042280DD1954808309549086042209149D6
:101B3000C871412008724C2048722020887210E041
:101B40008D48407943280CD18C480C308C49086072
:101B500043208849C8714C200872522048722020C6
:101B6000887220208349C872C9E0834800785028D1
:101B70005AD18148C078322856D150207D4988708A
:101B80005320C8704120087132204871202088718C
:101B90007948407949280ED1784810307849086052
:101BA00049207449C87100E0E1E04E20087220200D
:101BB0004872887234E07048407950280DD16F48DF
:101BC00014306F49086050206A49C8715220087269
:101BD0004F2048722020887222E0674840794228CE
:101BE0000DD1664818306649086042206149C871C5
:101BF000412008724C2048722020887210E05E4814
:101C0000407943280CD15D481C305D490860432071
:101C10005849C8714C20087252204872202088729E
:101C200020205449C8726AE053480078502846D1B1
:101C30005148C078442842D150204E4988705220E3
:101C4000C8704F20087144204871202088714A488C
:101C500040794F280CD14B48494908604F204549ED
:101C6000C87155200872542048722020887222E0E2
:101C70004148007A31280DD14248001D4049086092
:101C800050203C49C87153200872412048723120CD
:101C9000887210E03848007A32280CD13948103068
:101CA0003749086050203349C871532008724120D9
:101CB00048723220887220202E49C8721FE02E48B8
:101CC000007843281BD12B4988704F20C8704C20C6
:101CD00008713220487120208871274840794928AE
:101CE0000AD129482649086049202249C8714E2056
:101CF000087220204872887220201E49C8721E482F
:101D0000807A302802D0312810D107E000201C4909
:101D10000968086030201749087307E00120184956
:101D20000968086031201349087300BF00BF2020F4
:101D3000104948732A208873002405E00D48015D8E
:101D400012A0FEF76DFA641C0F2CF7DB0A4800782E
:101D5000532809D108484078452805D1064880789D
:101D6000542801D1FFF7B6FD00200149088010BDBD
:101D7000400000204800002057000020800122423F
:101D80000C00002088012342A0812142256300002D
:101D900010B54148006818B140A0FEF741FA02E0D2
:101DA00042A0FEF73DFA3C48001D006818B143A070
:101DB000FEF736FA02E045A0FEF732FA3648083060
:101DC000006818B145A0FEF72BFA02E047A0FEF725
:101DD00027FA31480C30006818B148A0FEF720FA05
:101DE00002E04AA0FEF71CFA2B481030006818B138
:101DF0004AA0FEF715FA02E04CA0FEF711FA2648B9
:101E00001430006818B14DA0FEF70AFA02E04FA0A6
:101E1000FEF706FA20481830006818B14FA0FEF708
:101E2000FFF902E051A0FEF7FBF91B481C300068E7
:101E300018B152A0FEF7F4F902E054A0FEF7F0F951
:101E40005648006818B156A0FEF7EAF902E058A01B
:101E5000FEF7E6F95148001D006818B158A0FEF7DA
:101E6000DFF902E05AA0FEF7DBF94C4810300068B9
:101E700018B15BA0FEF7D4F902E05DA0FEF7D0F93F
:101E80005F48006818B15FA0FEF7CAF902E061A0E0
:101E9000FEF7C6F910BD0000800122422A205053EF
:101EA000413120494E20202031202A002A20505341
:101EB000413120494E20202030202A002A20505332
:101EC00041312050524F202031202A002A205053E7
:101ED00041312050524F202030202A002A205053D8
:101EE00041312042414C202031202A002A205053E9
:101EF00041312042414C202030202A002A205053DA
:101F0000413120434C52202031202A002A205053B6
:101F1000413120434C52202030202A002A205053A7
:101F2000413220494E202020312A20002A205053BF
:101F3000413220494E20202030202A002A205053B0
:101F400041322050524F202031202A002A20505365
:101F500041322050524F202030202A002A20505356
:101F600041322042414C202031202A002A20505367
:101F700041322042414C202030202A002A20505358
:101F8000413220434C52202031202A002A20505335
:101F9000413220434C52202030202A008801234225
:101FA0002A2050524F44204F5554202031202A00DF
:101FB0002A2050524F44204F5554202030202A00D0
:101FC0002A2050524F4420505341312031202A00C2
:101FD0002A2050524F4420505341312030202A00B3
:101FE0002A2050524F4420505341322031202A00A1
:101FF0002A2050524F4420505341322030202A0092
:10200000A08121422A20434F4C3220494E202020DB
:1020100031202A002A20434F4C3220494E202020D4
:1020200030202A0010B503480068016802A0FEF7BE
:10203000F7F810BD000000202A2054494D45202506
:1020400075202A0010B586B00446012144F2040030
:10205000FEF78EFB4FF40070ADF8140003208DF8EE
:10206000160018208DF8170005A91C48FEF755FA30
:102070004FF48060ADF8140004208DF8170005A916
:102080001648FEF74AFA25208DF8000003208DF847
:1020900001008DF8020001208DF803006846FEF76C
:1020A00013FB01940020ADF80800ADF80A00ADF86C
:1020B0000C00ADF810000C20ADF80E0001A9084886
:1020C000FEF7D0FF012240F225510548FEF7A4FF9C
:1020D00001210348FEF76AFF06B010BD0008014069
:1020E00000380140042100080000002048000000E2
:1020F0006C0100084C21000848000020380700004F
:10210000880100080000000000000000000000003E
:102110000000000000A24A040000000000000000CF
:10212000010203040607080900000000010203047D
:102130000102030406070809020406080000000063
:0C21400000000000000000000000000093
:04000005080001DD11
:00000001FF
