:020000040800F2
:1000000070070020D50100083D060008AD05000876
:10001000390600088D0400086F0E0008000000007B
:100020000000000000000000000000004909000876
:100030009104000800000000C50600085D0A0008E1
:10004000EF010008EF010008EF010008EF010008D0
:10005000EF010008EF010008EF010008EF010008C0
:10006000EF010008EF010008EF010008EF010008B0
:10007000EF010008EF010008EF010008EF010008A0
:10008000EF010008EF010008EF010008EF01000890
:10009000EF010008EF010008EF010008EF01000880
:1000A000EF010008EF010008EF010008EF01000870
:1000B000EF010008C10A0008EF010008EF01000885
:1000C000EF010008EF010008EF010008EF01000850
:1000D000EF0100084D0C0008EF010008EF010008D7
:1000E000EF010008EF010008EF010008EF01000830
:1000F000EF010008EF010008EF010008EF01000820
:10010000EF010008EF010008EF010008EF0100080F
:10011000EF010008EF010008EF010008EF010008FF
:10012000EF010008EF010008EF010008EF010008EF
:1001300000F002F800F03FF80AA090E8000C8244BA
:100140008344AAF10107DA4501D100F034F8AFF297
:10015000090EBAE80F0013F0010F18BFFB1A43F0A5
:1001600001031847F810000018110000103A24BFCE
:1001700078C878C1FAD8520724BF30C830C144BF0C
:1001800004680C607047000000230024002500264E
:10019000103A28BF78C1FBD8520728BF30C148BFEA
:1001A0000B607047642900F07780002070471FB50E
:1001B0001FBD10B510BD00F037F91146FFF7F7FF6E
:1001C00000F0DCFE00F055F903B4FFF7F2FF03BCCA
:1001D00000F04FFE0948804709480047FEE7FEE768
:1001E000FEE7FEE7FEE7FEE7FEE7FEE7FEE7FEE7E7
:1001F00004480549054A064B70470000610A00089B
:1002000031010008700100207007002070030020F9
:1002100070030020704700000FB4044910B503AA12
:10022000029800F0D3F810BC5DF814FB38000020F1
:100230002DE9F0410E460446002020622046E16888
:10024000884730B3252805D0D4E901219047206A9A
:10025000401CF2E7E168204600278847050018D0D7
:10026000A5F14100192802D820354FF40067324625
:10027000294620462760FFF795FF40B1012804D0AA
:10028000F61D26F007060836D8E7361DD6E72846BD
:10029000DAE7206ABDE8F0812DE9F0410646002446
:1002A00010687529314616A510D0AFF300800028DC
:1002B00002DA404213A507E031688A0701D512A58A
:1002C00002E0490704D511A5012401E0AFF3008045
:1002D00000210A2206F1240709E0B0FBF2FCB0FB82
:1002E000F2F302FB1C00303078541846491C0028F9
:1002F000F3D123462A463046BDE8F04100F00CB861
:10030000000000002D0000002B0000002000000075
:1003100070477047704770472DE9F0470D46994682
:100320009246044600F124080168880604D5E06975
:1003300021F01001216000E00120A84201DD471BEF
:1003400000E00027A1697A1902EB0900081AA061F0
:100350002078C00602D42046AFF30080002608E0D3
:10036000D4E901211AF806009047206A401C761C47
:1003700020624E45F4DB2078C0060AD52046AFF354
:10038000008006E0D4E9012130209047206A401C1B
:100390002062381EA7F10107F4DC07E0D4E901214F
:1003A00018F805009047206A401C2062281EA5F11D
:1003B0000105F3DC2046AFF300802078000602D56B
:1003C0000220BDE8F0870120FBE70000074B70B575
:1003D0000D467B4400F011F80446284600F020F852
:1003E00010B14FF0FF3070BD204670BD330B0000E0
:1003F00001694A1C02610878704700B58FB0CDE9E9
:1004000001310021059105497944CDE903101146D8
:100410006846FFF70DFF0FB000BD0000E5FFFFFFCE
:10042000007B00F080007047754600F02BF8AE4668
:1004300005006946534620F00700854618B020B5F0
:10044000FFF7D6FEBDE820404FF000064FF0000752
:100450004FF000084FF0000B21F00701AC46ACE86C
:10046000C009ACE8C009ACE8C009ACE8C0098D46D9
:10047000704710B50446AFF300802046BDE8104039
:10048000FFF7A2BE004870470C01002000BFFEE746
:1004900070472DE9F0410246002500260020002388
:1004A0000024002791F803C00CF00F0591F803C059
:1004B0000CF0100CBCF1000F03D091F802C04CEA14
:1004C000050591F800C0BCF1000F31D01468002080
:1004D0002BE04FF0010C0CFA00F3B1F800C00CEA6D
:1004E00003069E4220D183004FF00F0C0CFA03F755
:1004F000BC4305FA03FC4CEA040491F803C0BCF1C8
:10050000280F06D14FF0010C0CFA00FCC2F814C001
:100510000AE091F803C0BCF1480F05D14FF0010C7F
:100520000CFA00FCC2F810C0401C0828D1D314609B
:10053000B1F800C0BCF1FF0F34DD546800202EE09C
:1005400000F1080C4FF0010808FA0CF3B1F800C0F4
:100550000CEA03069E4221D183004FF00F0C0CFAE7
:1005600003F7BC4305FA03FC4CEA040491F803C00A
:10057000BCF1280F05D100F1080C08FA0CF8C2F8FC
:10058000148091F803C0BCF1480F07D100F1080CAA
:100590004FF0010808FA0CF8C2F81080401C082837
:1005A000CED35460BDE8F0810161704700BFFEE723
:1005B00008B50121442000F097F81020ADF80000A4
:1005C00028208DF8030069460648FFF762FF0120E6
:1005D000ADF8000028208DF8030069460248FFF7B7
:1005E00058FF08BD001801400008014008B501216E
:1005F000482000F079F82020ADF8000010208DF898
:10060000030003208DF8020069460948FFF741FF07
:1006100020210748FFF7C8FF2020ADF800006946F9
:100620000448FFF736FF20210248FFF7BDFF08BD51
:10063000000C01400018014000BFFEE770470000B9
:1006400070B5002100230F22C47804B3154C246830
:1006500004F4E064C4F5E064210AC1F10403CA4073
:10066000447804FA03F184781440214309010E4CC4
:100670000678A155047804F01F050124AC400578E4
:100680006D11AD0005F1E025C5F8004109E00478E1
:1006900004F01F050124AC40044D0678761145F89E
:1006A000264070BD0CED00E000E400E080E100E0D9
:1006B00002490143024A1160704700000000FA0538
:1006C0000CED00E07047000029B1064AD2690243F0
:1006D000044BDA6104E0034AD2698243014BDA61D8
:1006E000704700000010024029B1064A9269024397
:1006F000044B9A6104E0034A92698243014B9A6178
:10070000704700000010024030B500210022002494
:1007100000232D4D6D6805F00C0121B1042905D091
:10072000082923D105E0294D056022E0274D056009
:100730001FE0254D6D6805F47012234D6D6805F4BA
:100740008034022505EB92421CB9214D55430560CA
:100750000BE01D4D6D6805F400351DB11C4D554372
:10076000056002E0194D5543056002E0174D056034
:1007700000BF00BF144D6D6805F0F0010909154D6B
:100780006B5C0568DD4045600F4D6D6805F4E06108
:10079000090A104D6B5C4568DD4085600A4D6D6847
:1007A00005F46051C90A0B4D6B5C4568DD40C560BE
:1007B000054D6D6805F44041890B074D6B5CC568BC
:1007C000B5FBF3F5056130BD0010024000127A0060
:1007D00000093D00200000203000002008B5012164
:1007E0001020FFF781FF0120ADF8000010208DF8E8
:1007F000030003208DF8020069465248FFF749FEC6
:1008000001215048FFF7D0FE0220ADF80000102073
:100810008DF8030003208DF8020069464948FFF770
:1008200038FE02214748FFF7BFFE0420ADF8000064
:1008300010208DF8030003208DF80200694641481E
:10084000FFF727FE04213F48FFF7AEFE0820ADF872
:10085000000010208DF8030003208DF80200694687
:100860003848FFF716FE08213648FFF79DFE102096
:10087000ADF800008DF8030003208DF802006946F2
:100880003048FFF706FE10212E48FFF78DFE20208E
:10089000ADF8000010208DF8030003208DF8020051
:1008A00069462848FFF7F5FD20212648FFF77CFE22
:1008B0004020ADF8000010208DF8030003208DF8D3
:1008C000020069461F48FFF7E4FD40211D48FFF77D
:1008D0006BFE8020ADF8000010208DF8030003208F
:1008E0008DF8020069461748FFF7D3FD80211548AF
:1008F000FFF75AFE4FF48070ADF8000010208DF81D
:10090000030003208DF8020069460E48FFF7C1FD81
:100910004FF480710B48FFF747FE4FF40070ADF8BD
:10092000000010208DF8030003208DF802006946B6
:100930000448FFF7AEFD4FF400710248FFF734FEA4
:1009400008BD000000100140704710B500F002F82B
:1009500010BD00000CB500200190009033480068E5
:1009600040F480303149086000BF3048006800F42E
:10097000003000900198401C0190009818B901982F
:10098000B0F5A06FF1D12948006800F4003010B133
:100990000120009001E0002000900098012843D140
:1009A0002348006840F010002149086008460068AC
:1009B00020F0030008600846006840F0020008606C
:1009C0001A48406819494860084640684860084627
:1009D000406840F4806048600846406820F47C101D
:1009E00048600846406840F4E810486008460068DF
:1009F00040F08070086000BF0C48006800F0007094
:100A00000028F9D00948406820F0030007494860F1
:100A10000846406840F00200486000BF0348406854
:100A200000F00C000828F9D10CBD000000100240B5
:100A300000200240042808D14FF0E021096941F06C
:100A400004014FF0E022116107E04FF0E021096955
:100A500021F004014FF0E02211617047704700005F
:100A600010B51348006840F00100114908600846BD
:100A70004068104908400E494860084600680E4921
:100A800008400B4908600846006820F48020086090
:100A90000846406820F4FE0048604FF41F0088605C
:100AA000FFF753FF4FF000600449086010BD0000DD
:100AB000001002400000FFF8FFFFF6FE08ED00E026
:100AC00010B50121064800F054F840B10121044856
:100AD00000F040F803480068401C0249086010BD5F
:100AE00000040040400000207FB505460C4601216F
:100AF0000220FFF7E9FDADF80850ADF804400020F2
:100B0000ADF80A00ADF8060001A9104800F04CF855
:100B1000012211460D4800F03DF81D208DF800001F
:100B200000208DF8010003208DF8020001208DF8CF
:100B300003006846FFF784FD0121044800F00DF82A
:100B4000002003490860084604B070BD000400405E
:100B500040000020CA430282704721B1028842F05F
:100B60000102028004E002884FF6FE731A40028000
:100B7000704730B50246002000230024158A05EA9C
:100B80000103958905EA010413B10CB1012000E0CD
:100B9000002030BD1AB183890B43838102E0838931
:100BA0008B43838170470000002202881D4B9842CE
:100BB0000ED01D4B98420BD0B0F1804F08D01B4B8C
:100BC000984205D01A4B984202D01A4B984204D151
:100BD0004FF68F731A404B881A43174B984207D031
:100BE000164B984204D04FF6FF431A40CB881A4365
:100BF00002808B8883850B8803850A4B98420BD033
:100C0000094B984208D00E4B984205D00D4B9842A4
:100C100002D00D4B984201D10B7A038601238382C7
:100C200070470000002C01400034014000040040E7
:100C300000080040000C004000100040001400407C
:100C400000400140004401400048014010B540F21E
:100C500025511D4800F04AF810B31B4800F002F976
:100C6000C4B21A48008800F40040C8B91748008888
:100C700000F4804060B10A2C03D0002013490880A2
:100C800020E01248008840F400401049088019E034
:100C90000D2C06D10D48008840F480400B49088097
:100CA00010E00A480088C0F30D0009490C540748B9
:100CB0000088401C0549088008460088C72801DDD7
:100CC0000020088010BD0000003801403C000020DA
:100CD0004400002021B1828942F40052828104E064
:100CE00082894DF6FF731A408281704770B50246C3
:100CF000002400230025002040F66A16B14200D1EE
:100D000000BFC1F3421501F01F03012606FA03F3E9
:100D1000012D02D19689334006E0022D02D1168AB8
:100D2000334001E0968A33400C12012606FA04F49F
:100D30001688344013B10CB1012000E0002070BDD2
:100D4000F0B50346002400260025002040F66A176F
:100D5000B94200D100BF1846C1F3421401F01F068A
:100D6000012707FA06F5012C01D10C3004E0022C12
:100D700001D1103000E014301AB107682F4307602A
:100D800002E00768AF430760F0BD00002DE9F047BF
:100D900086B005460E460024A24600BFA1460027A5
:100DA000B08900B100BF2F462C8A4CF6FF7004407A
:100DB000F08804432C82AC894EF6F3100440B088CE
:100DC00031890843718908430443AC81AC8A4FF6EA
:100DD000FF400440B0890443AC8201A8FFF794FCB3
:100DE0001F48874202D1DDF810A001E0DDF80CA019
:100DF000A88900F4004040B10AEBCA0000EB0A10D9
:100E000031684900B0FBF1F807E00AEBCA0000EBDB
:100E10000A1031688900B0FBF1F86420B8FBF0F0EB
:100E200004012009642101FB1089A88900F4004015
:100E300040B1322000EBC900B0FBF1F000F0070038
:100E4000044308E0322000EB09106421B0FBF1F00C
:100E500000F00F0004432C8106B0BDE8F0870000CD
:100E60000038014001468888C0F30800704700BF81
:100E7000FEE7014600BF704710B56FF00400FFF7B2
:100E8000D9FD0A4800680A49B0FBF1F00949087029
:100E90000846007800EB4001C1EBC0104FF6FF712F
:100EA00001EAC0000449088010BD00000C000020C9
:100EB00000127A0034000020360000200146114A5A
:100EC00012884A434FF0E0235A6100229A611A4681
:100ED000126942F001021A6100BF4FF0E02210696E
:100EE00000F001021AB100F48032002AF5D04FF070
:100EF000E022126922F001024FF0E0231A61002281
:100F00009A6170473600002000BF054A128802F03F
:100F10004002002AF9D0C2B2014B1B1D1A80704753
:100F20000038014010B5FFF7A7FF4FF4A060FFF7AE
:100F3000BFFB4FF4E13000F041F9FFF757FBFFF73B
:100F40004DFCFFF735FB00200849087041F61F41B2
:100F500042F20F70FFF7C8FD0549086001200549FE
:100F6000086000200449C1F8940110BD0800002069
:100F7000000000209481214200002342FFF7D2FFAD
:100F800035E01B48006800681A490968884204D99E
:100F9000002017490968086029E01748008800F414
:100FA000004010B10120154908701448007810B1B4
:100FB000012814D109E012A0FFF72EF900F0CEF8B5
:100FC0004FF4FA70FFF77AFF09E000F025F80020EF
:100FD0000A4908704FF47A70FFF770FF00BF00BF36
:100FE0000348006801680AA0FFF716F900BFC8E7C8
:100FF00000000020040000203C0000200800002029
:1010000054494D4520434F4E54524F4C200D0A0039
:101010000D0A202564200A004A480078432872D12E
:101020004848407830380A2817D2DFE800F0051722
:101030002A35404B56616D784348006808B9012055
:1010400000E00020404908604048D0F8800108B91D
:10105000012000E000203E4908606BE03D48006848
:1010600008B9012000E000203A4908603748D0F86C
:10107000840108B9012000E000203549091D0860FD
:1010800058E033480830006808B9012000E000202B
:101090002F49083108604DE02D480C30006808B930
:1010A000012000E000202A490C31086042E0284875
:1010B0001030006808B9012000E0002024491031F8
:1010C000086037E022481430006808B9012000E0C9
:1010D00000201F49143108602CE01D4818300068BA
:1010E00008B9012000E0002019491831086021E00A
:1010F00017481C30006808B9012000E0002014499E
:101100001C31086016E017E011482030006808B96B
:10111000012000E000200E49203108600AE00C4860
:101120002430006808B9012000E00020084924317B
:10113000086000BF00BF00BF00BF00200649088054
:1011400070470000440000209481214200002242A8
:1011500080012242940123423C00002010B510A0DF
:10116000FFF75AF8124800680068022806D00328E2
:1011700008D005280AD0062810D10BE000200D4920
:1011800008600BE000200C49086007E001200949D5
:10119000086003E001200849086000BF00BF10BDDF
:1011A00074696D6520636F6E74726F6C200D0A0038
:1011B00000000020948121429401234210B586B0A2
:1011C0000446012144F20400FFF78EFA4FF4007048
:1011D000ADF8140003208DF8160018208DF81700C4
:1011E00005A91C48FFF755F94FF48060ADF81400CD
:1011F00004208DF8170005A91648FFF74AF92520A5
:101200008DF8000003208DF801008DF80200012008
:101210008DF803006846FFF713FA01940020ADF83B
:101220000800ADF80A00ADF80C00ADF810000C2075
:10123000ADF80E0001A90848FFF7A8FD012240F211
:1012400025510548FFF77CFD01210348FFF742FDCA
:1012500006B010BD00080140003801407C120008B3
:1012600000000020440000006C010008C0120008CB
:10127000440000202C070000880100080000000046
:10128000070000000000000000A24A040000000067
:101290000000000001020304060708090000000026
:1012A00001020304010203040607080902040608F8
:1012B000000000000000000000000000000000002E
:04000005080001D519
:00000001FF
