:020000040800F2
:1000000078070020D50100089105000801050008C7
:100010008D050008E1030008C30D00080000000082
:100020000000000000000000000000009D08000823
:10003000E50300080000000019060008B1090008E7
:10004000EF010008EF010008EF010008EF010008D0
:10005000EF010008EF010008EF010008EF010008C0
:10006000EF010008EF010008EF010008EF010008B0
:10007000EF010008EF010008EF010008EF010008A0
:10008000EF010008EF010008EF010008EF01000890
:10009000EF010008EF010008EF010008EF01000880
:1000A000EF010008EF010008EF010008EF01000870
:1000B000EF010008150A0008EF010008EF01000831
:1000C000EF010008EF010008EF010008EF01000850
:1000D000EF010008A10B0008EF010008EF01000884
:1000E000EF010008EF010008EF010008EF01000830
:1000F000EF010008EF010008EF010008EF01000820
:10010000EF010008EF010008EF010008EF0100080F
:10011000EF010008EF010008EF010008EF010008FF
:10012000EF010008EF010008EF010008EF010008EF
:1001300000F002F800F03FF80AA090E8000C8244BA
:100140008344AAF10107DA4501D100F034F8AFF297
:10015000090EBAE80F0013F0010F18BFFB1A43F0A5
:1001600001031847F80F000018100000103A24BFD0
:1001700078C878C1FAD8520724BF30C830C144BF0C
:1001800004680C607047000000230024002500264E
:10019000103A28BF78C1FBD8520728BF30C148BFEA
:1001A0000B607047632900F0AE80002070471FB5D8
:1001B0001FBD10B510BD00F0E1F81146FFF7F7FFC5
:1001C00000F06AFE00F0FFF803B4FFF7F2FF03BC93
:1001D00000F0F9FD0948804709480047FEE7FEE7BF
:1001E000FEE7FEE7FEE7FEE7FEE7FEE7FEE7FEE7E7
:1001F00004480549054A064B70470000B509000848
:1002000031010008780100207807002078030020E1
:1002100078030020704700000FB4044910B503AA0A
:10022000029800F07DF810BC5DF814FB400000203F
:100230002DE9F0410E460446002020622046E16888
:10024000884730B3252805D0D4E901219047206A9A
:10025000401CF2E7E168204600278847050018D0D7
:10026000A5F14100192802D820354FF40067324625
:10027000294620462760FFF795FF40B1012804D0AA
:10028000F61D26F007060836D8E7361DD6E72846BD
:10029000DAE7206ABDE8F08170B50C460546012A10
:1002A00005D02878800600D5EA69002302E0012302
:1002B00005E05B1C934202D2E05C0028F9D1A869FA
:1002C000E618C01AA861286A184428622846AFF3C5
:1002D000008004E0D5E9012114F8010B9047B442F5
:1002E000F8D32846AFF3008070BD70477047704761
:1002F000704710B5436913B1AFF3008001E0FFF719
:10030000CBFF012010BD127800F124010A700022F9
:100310004A700122EDE711684FF0FF32E9E7000073
:10032000074B70B50D467B4400F011F80446284693
:1003300000F020F810B14FF0FF3070BD204670BDC6
:10034000E70A000001694A1C02610878704700B59D
:100350008FB0CDE901310021059105497944CDE9FE
:10036000031011466846FFF763FF0FB000BD0000A1
:10037000E5FFFFFF007B00F080007047754600F04E
:100380002BF8AE4605006946534620F00700854627
:1003900018B020B5FFF72CFFBDE820404FF0000655
:1003A0004FF000074FF000084FF0000B21F007015D
:1003B000AC46ACE8C009ACE8C009ACE8C009ACE8A0
:1003C000C0098D46704710B50446AFF30080204643
:1003D000BDE81040FFF7F8BE004870471401002048
:1003E00000BFFEE770472DE9F041024600250026D8
:1003F000002000230024002791F803C00CF00F0513
:1004000091F803C00CF0100CBCF1000F03D091F870
:1004100002C04CEA050591F800C0BCF1000F31D0D4
:10042000146800202BE04FF0010C0CFA00F3B1F837
:1004300000C00CEA03069E4220D183004FF00F0C4F
:100440000CFA03F7BC4305FA03FC4CEA040491F8E8
:1004500003C0BCF1280F06D14FF0010C0CFA00FCD0
:10046000C2F814C00AE091F803C0BCF1480F05D1EE
:100470004FF0010C0CFA00FCC2F810C0401C082818
:10048000D1D31460B1F800C0BCF1FF0F34DD546863
:1004900000202EE000F1080C4FF0010808FA0CF3E0
:1004A000B1F800C00CEA03069E4221D183004FF050
:1004B0000F0C0CFA03F7BC4305FA03FC4CEA0404E6
:1004C00091F803C0BCF1280F05D100F1080C08FA1F
:1004D0000CF8C2F8148091F803C0BCF1480F07D1A2
:1004E00000F1080C4FF0010808FA0CF8C2F810806F
:1004F000401C0828CED35460BDE8F08101617047EC
:1005000000BFFEE708B50121442000F097F8102055
:10051000ADF8000028208DF8030069460648FFF773
:1005200062FF0120ADF8000028208DF80300694625
:100530000248FFF758FF08BD0018014000080140BD
:1005400008B50121482000F079F82020ADF800001E
:1005500010208DF8030003208DF802006946094839
:10056000FFF741FF20210748FFF7C8FF2020ADF823
:10057000000069460448FFF736FF20210248FFF7D4
:10058000BDFF08BD000C01400018014000BFFEE7A0
:100590007047000070B5002100230F22C47804B317
:1005A000154C246804F4E064C4F5E064210AC1F148
:1005B0000403CA40447804FA03F1847814402143C8
:1005C00009010E4C0678A155047804F01F0501249A
:1005D000AC4005786D11AD0005F1E025C5F800418E
:1005E00009E0047804F01F050124AC40044D0678AE
:1005F000761145F8264070BD0CED00E000E400E007
:1006000080E100E002490143024A116070470000A6
:100610000000FA050CED00E07047000029B1064A21
:10062000D2690243044BDA6104E0034AD26982438F
:10063000014BDA61704700000010024029B1064A00
:1006400092690243044B9A6104E0034A926982432F
:10065000014B9A61704700000010024030B5002144
:100660000022002400232D4D6D6805F00C0121B1FE
:10067000042905D0082923D105E0294D056022E091
:10068000274D05601FE0254D6D6805F47012234D60
:100690006D6805F48034022505EB92421CB9214DAA
:1006A000554305600BE01D4D6D6805F400351DB127
:1006B0001C4D5543056002E0194D5543056002E0AD
:1006C000174D056000BF00BF144D6D6805F0F001C7
:1006D0000909154D6B5C0568DD4045600F4D6D687F
:1006E00005F4E061090A104D6B5C4568DD408560EA
:1006F0000A4D6D6805F46051C90A0B4D6B5C456885
:10070000DD40C560054D6D6805F44041890B074D1E
:100710006B5CC568B5FBF3F5056130BD00100240A8
:1007200000127A0000093D00280000203800002057
:1007300008B501211020FFF781FF0120ADF800006E
:1007400010208DF8030003208DF8020069465248FE
:10075000FFF749FE01215048FFF7D0FE0220ADF817
:10076000000010208DF8030003208DF80200694678
:100770004948FFF738FE02214748FFF7BFFE042033
:10078000ADF8000010208DF8030003208DF8020062
:1007900069464148FFF727FE04213F48FFF7AEFEB8
:1007A0000820ADF8000010208DF8030003208DF81C
:1007B000020069463848FFF716FE08213648FFF761
:1007C0009DFE1020ADF800008DF8030003208DF889
:1007D000020069463048FFF706FE10212E48FFF759
:1007E0008DFE2020ADF8000010208DF803000320BE
:1007F0008DF8020069462848FFF7F5FD20212648BC
:10080000FFF77CFE4020ADF8000010208DF80300BB
:1008100003208DF8020069461F48FFF7E4FD4021E0
:100820001D48FFF76BFE8020ADF8000010208DF80A
:10083000030003208DF8020069461748FFF7D3FD37
:1008400080211548FFF75AFE4FF48070ADF8000084
:1008500010208DF8030003208DF8020069460E4831
:10086000FFF7C1FD4FF480710B48FFF747FE4FF4CF
:100870000070ADF8000010208DF8030003208DF803
:10088000020069460448FFF7AEFD4FF400710248CC
:10089000FFF734FE08BD000000100140704710B59E
:1008A00000F002F810BD00000CB50020019000908F
:1008B0003348006840F480303149086000BF304858
:1008C000006800F4003000900198401C01900098EE
:1008D00018B90198B0F5A06FF1D12948006800F46B
:1008E000003010B10120009001E00020009000983D
:1008F000012843D12348006840F0100021490860D6
:100900000846006820F0030008600846006840F0D0
:10091000020008601A484068194948600846406863
:1009200048600846406840F4806048600846406877
:1009300020F47C1048600846406840F4E8104860A5
:100940000846006840F08070086000BF0C480068EE
:1009500000F000700028F9D00948406820F003003A
:10096000074948600846406840F00200486000BF00
:100970000348406800F00C000828F9D10CBD0000C5
:100980000010024000200240042808D14FF0E0216E
:10099000096941F004014FF0E022116107E04FF0D6
:1009A000E021096921F004014FF0E0221161704754
:1009B0007047000010B51348006840F0010011496D
:1009C000086008464068104908400E4948600846DB
:1009D00000680E4908400B4908600846006820F48A
:1009E000802008600846406820F4FE0048604FF40C
:1009F0001F008860FFF753FF4FF000600449086054
:100A000010BD0000001002400000FFF8FFFFF6FEDE
:100A100008ED00E010B50121064800F054F840B19F
:100A20000121044800F040F803480068401C0249D6
:100A3000086010BD00040040480000207FB5054656
:100A40000C4601210220FFF7E9FDADF80850ADF892
:100A500004400020ADF80A00ADF8060001A91048D6
:100A600000F04CF8012211460D4800F03DF81D2021
:100A70008DF8000000208DF8010003208DF80200A1
:100A800001208DF803006846FFF784FD012104482A
:100A900000F00DF8002003490860084604B070BD5E
:100AA0000004004048000020CA430282704721B180
:100AB000028842F00102028004E002884FF6FE73D1
:100AC0001A400280704730B50246002000230024FF
:100AD000158A05EA0103958905EA010413B10CB1F1
:100AE000012000E0002030BD1AB183890B438381CF
:100AF00002E083898B4383817047000000220288D3
:100B00001D4B98420ED01D4B98420BD0B0F1804F38
:100B100008D01B4B984205D01A4B984202D01A4B72
:100B2000984204D14FF68F731A404B881A43174BE3
:100B3000984207D0164B984204D04FF6FF431A4014
:100B4000CB881A4302808B8883850B8803850A4BE8
:100B500098420BD0094B984208D00E4B984205D0D2
:100B60000D4B984202D00D4B984201D10B7A03866F
:100B70000123838270470000002C014000340140B3
:100B80000004004000080040000C0040001000403D
:100B90000014004000400140004401400048014072
:100BA00010B540F225511D4800F04AF810B31B481B
:100BB00000F002F9C4B21A48008800F40040C8B935
:100BC0001748008800F4804060B10A2C03D0002050
:100BD0001349088020E01248008840F40040104982
:100BE000088019E00D2C06D10D48008840F48040A3
:100BF0000B49088010E00A480088C0F30D0009493D
:100C00000C5407480088401C0549088008460088A5
:100C1000C72801DD0020088010BD00000038014019
:100C2000440000204C00002021B1828942F400528F
:100C3000828104E082894DF6FF731A4082817047F9
:100C400070B50246002400230025002040F66A16F5
:100C5000B14200D100BFC1F3421501F01F030126CC
:100C600006FA03F3012D02D19689334006E0022DE6
:100C700002D1168A334001E0968A33400C120126D5
:100C800006FA04F41688344013B10CB1012000E0D8
:100C9000002070BDF0B5034600240026002500208A
:100CA00040F66A17B94200D100BF1846C1F342149A
:100CB00001F01F06012707FA06F5012C01D10C30BF
:100CC00004E0022C01D1103000E014301AB10768A2
:100CD0002F43076002E00768AF430760F0BD0000E4
:100CE0002DE9F04786B005460E460024A24600BF17
:100CF000A1460027B08900B100BF2F462C8A4CF6D0
:100D0000FF700440F08804432C82AC894EF6F31047
:100D10000440B08831890843718908430443AC8199
:100D2000AC8A4FF6FF400440B0890443AC8201A86E
:100D3000FFF794FC1F48874202D1DDF810A001E0C4
:100D4000DDF80CA0A88900F4004040B10AEBCA000D
:100D500000EB0A1031684900B0FBF1F807E00AEB3C
:100D6000CA0000EB0A1031688900B0FBF1F864207A
:100D7000B8FBF0F004012009642101FB1089A88967
:100D800000F4004040B1322000EBC900B0FBF1F0AC
:100D900000F00700044308E0322000EB0910642152
:100DA000B0FBF1F000F00F0004432C8106B0BDE869
:100DB000F08700000038014001468888C0F3080031
:100DC000704700BFFEE7014600BF704710B56FF0E7
:100DD0000400FFF7D9FD0A4800680A49B0FBF1F0AA
:100DE000094908700846007800EB4001C1EBC010CB
:100DF0004FF6FF7101EAC0000449088010BD0000F1
:100E00001400002000127A003C0000203E00002068
:100E100000BF054A128802F04002002AF9D0C2B28F
:100E2000014B1B1D1A8070470038014010B5FFF7B9
:100E3000CDFF4FF4A060FFF7E5FB4FF4E13000F089
:100E40003DF9FFF77DFBFFF773FCFFF75BFB00202D
:100E50000B49087041F61F4140F2E730FFF7EEFD05
:100E6000084908603D2008490860002007490860DB
:100E700001200749086000200649C1F8940110BD0F
:100E80000800002000000020040000200C000020CA
:100E90009481214200002342FFF7C8FF2FE0184849
:100EA0000068006817490968884204D9002014497D
:100EB0000968086023E01448008800F4004010B17D
:100EC0000120124908701148007810B1012809D199
:100ED00002E000F0C1F805E000F01AF800200B492C
:100EE000087000BF00BF0648006800680A21B0FB18
:100EF000F1F201FB120008B900F08CF800BFCEE758
:100F00000000002004000020440000200800002011
:100F100010B538480078432844D13749087035481F
:100F2000407830380A283BD2DFE800F0050C131770
:100F30001C21262B303531483149086030202E499C
:100F400048702DE02F482E49086031202A4948700A
:100F500026E02D482A49086022E02B48001D284938
:100F600008601DE0284808302549086018E0264838
:100F70000C302349086013E02348103020490860F2
:100F80000EE0214814301E49086009E01E48183060
:100F90001B49086004E01C481C301949086000BF68
:100FA00000BF00BF00BF13488078302802D031282E
:100FB00010D107E0002012490968086030200E496E
:100FC000887007E001200E490968086031200A494D
:100FD000887000BF00BF002405E00748015D0BA03A
:100FE000FFF71AF9641C032CF7DB0020084908807E
:100FF00010BD00004C000020100000209481214210
:101000000C00002094012342880122422563000045
:101010004400002010B50A48006818B109A0FFF785
:10102000FBF802E008A0FFF7F7F80848006818B1DD
:1010300007A0FFF7F1F802E006A0FFF7EDF810BDFA
:1010400094812142433031004330300094012342E7
:1010500043313100433130001448006800681428DF
:1010600006D01E280BD0322810D03C281CD114E00A
:1010700000200F4908600F49C1F8800114E00020EA
:101080000D4908600B49C1F884010DE001200849B1
:1010900008600849C1F8800106E00120064908609F
:1010A0000449C1F8840100BF00BF70470000002060
:1010B00094812142000022429401234210B586B05F
:1010C0000446012144F20400FFF7B8FA4FF400701F
:1010D000ADF8140003208DF8160018208DF81700C5
:1010E00005A91C48FFF77FF94FF48060ADF81400A4
:1010F00004208DF8170005A91648FFF774F925207C
:101100008DF8000003208DF801008DF80200012009
:101110008DF803006846FFF73DFA01940020ADF812
:101120000800ADF80A00ADF80C00ADF810000C2076
:10113000ADF80E0001A90848FFF7D2FD012240F2E8
:1011400025510548FFF7A6FD01210348FFF76CFD77
:1011500006B010BD00080140003801407C110008B5
:10116000000000204C0000006C010008C8110008BD
:101170004C0000202C07000088010008000000003F
:10118000000000000000000000000000000000005F
:1011900000A24A0400000000000000000102030455
:1011A000060708090000000001020304010203040D
:1011B00006070809020406080000000000000000FD
:0811C000000000000000000027
:04000005080001D519
:00000001FF
